{
  "contractName": "BondedAttentionDAO",
  "abi": [
    {
      "inputs": [],
      "payable": false,
      "stateMutability": "nonpayable",
      "type": "constructor"
    },
    {
      "constant": false,
      "inputs": [
        {
          "name": "postDigest",
          "type": "bytes32"
        }
      ],
      "name": "post",
      "outputs": [],
      "payable": false,
      "stateMutability": "nonpayable",
      "type": "function"
    },
    {
      "constant": false,
      "inputs": [],
      "name": "claim",
      "outputs": [],
      "payable": false,
      "stateMutability": "nonpayable",
      "type": "function"
    }
  ],
  "bytecode": "0x6080604052348015600f57600080fd5b50609b8061001e6000396000f3fe6080604052348015600f57600080fd5b506004361060325760003560e01c80634e71d92d146037578063a74a183114603f575b600080fd5b603d606a565b005b606860048036036020811015605357600080fd5b8101908080359060200190929190505050606c565b005b565b5056fea165627a7a723058205e86b8ad4484f7d14b70f5567c0b71863ae1bf3abe6c82fa9a6e2fdfa2e173fc0029",
  "source": "// A DAO where you pay to get someone's attention\n// Posts here are represented by ERC721's.\n// And bonded with certain amounts\n// You have your own token\n// which can be bought\n// but also given away\n\ncontract BondedAttentionDAO {\n    constructor() public {\n\n    }\n\n    function post(bytes32 postDigest) external {\n        // bondAmount\n\n    }\n\n    function claim() external {\n        // transfer $ to owner\n    }\n}",
  "sourcePath": "/Users/liamz/Documents/open-source/everest/fundao/contracts/experiments/persondao/Personal.sol",
  "compiler": {
    "name": "solc",
    "version": "0.5.8+commit.23d335f2.Emscripten.clang"
  },
  "schemaVersion": "3.0.13",
  "updatedAt": "2019-09-26T18:20:00.743Z",
  "devdoc": {
    "methods": {}
  },
  "userdoc": {
    "methods": {}
  }
}