{
  "contractName": "NewsletterDAO",
  "abi": [
    {
      "constant": false,
      "inputs": [],
      "name": "join",
      "outputs": [],
      "payable": false,
      "stateMutability": "nonpayable",
      "type": "function"
    }
  ],
  "bytecode": "0x6080604052348015600f57600080fd5b50606380601d6000396000f3fe6080604052348015600f57600080fd5b506004361060285760003560e01c8063b688a36314602d575b600080fd5b60336035565b005b56fea165627a7a72305820ddc58fe7e9c5f34f1b244f6a561bf71d0d4c60f8d606311be2354f375c2cb4180029",
  "deployedBytecode": "0x6080604052348015600f57600080fd5b506004361060285760003560e01c8063b688a36314602d575b600080fd5b60336035565b005b56fea165627a7a72305820ddc58fe7e9c5f34f1b244f6a561bf71d0d4c60f8d606311be2354f375c2cb4180029",
  "source": "// A DAO based on a membership subscription model\n// Members join for a deposit\n\n\ncontract NewsletterDAO {\n    function join() external {\n        // require $5 deposit\n    }\n}",
  "sourcePath": "/Users/liamz/Documents/open-source/everest/fundao/contracts/experiments/newsletterdao/NewsletterDAO.sol",
  "compiler": {
    "name": "solc",
    "version": "0.5.8+commit.23d335f2.Emscripten.clang"
  },
  "schemaVersion": "3.0.13",
  "updatedAt": "2019-09-26T18:20:00.743Z",
  "devdoc": {
    "methods": {}
  },
  "userdoc": {
    "methods": {}
  }
}