{
  "contractName": "TokenSpace",
  "abi": [
    {
      "inputs": [
        {
          "name": "_token",
          "type": "address"
        }
      ],
      "payable": false,
      "stateMutability": "nonpayable",
      "type": "constructor"
    },
    {
      "constant": true,
      "inputs": [
        {
          "name": "x",
          "type": "address"
        }
      ],
      "name": "isMember",
      "outputs": [
        {
          "name": "",
          "type": "bool"
        }
      ],
      "payable": false,
      "stateMutability": "view",
      "type": "function"
    }
  ],
  "bytecode": "0x608060405234801561001057600080fd5b5060405160208061022d8339810180604052602081101561003057600080fd5b8101908080519060200190929190505050806000806101000a81548173ffffffffffffffffffffffffffffffffffffffff021916908373ffffffffffffffffffffffffffffffffffffffff1602179055505061019c806100916000396000f3fe608060405234801561001057600080fd5b506004361061002b5760003560e01c8063a230c52414610030575b600080fd5b6100726004803603602081101561004657600080fd5b81019080803573ffffffffffffffffffffffffffffffffffffffff16906020019092919050505061008c565b604051808215151515815260200191505060405180910390f35b6000806000809054906101000a900473ffffffffffffffffffffffffffffffffffffffff1673ffffffffffffffffffffffffffffffffffffffff166370a08231846040518263ffffffff1660e01b8152600401808273ffffffffffffffffffffffffffffffffffffffff1673ffffffffffffffffffffffffffffffffffffffff16815260200191505060206040518083038186803b15801561012d57600080fd5b505afa158015610141573d6000803e3d6000fd5b505050506040513d602081101561015757600080fd5b810190808051906020019092919050505011905091905056fea165627a7a723058202fe8cedeac91f1f12afdc12a18658789a1416c11cd87506d1403156c63ad4b430029",
  "source": "pragma solidity >=0.4.21 <0.6.0;\n\nimport \"@openzeppelin/contracts/token/ERC20/IERC20.sol\";\nimport \"./ISpace.sol\";\n\n// Can be an ERC20, ERC721, ERC777\ninterface IERCToken {\n    function balanceOf(address user) external view returns (uint);\n}\n\ncontract TokenSpace is ISpace {\n    IERCToken token;\n    \n    constructor(address _token) public {\n        token = IERCToken(_token);\n    }\n\n    function isMember(address x) public view returns (bool) {\n        return token.balanceOf(x) > 0;\n    }\n}",
  "sourcePath": "/Users/liamz/Documents/open-source/everest/fundao/contracts/TokenSpace.sol",
  "compiler": {
    "name": "solc",
    "version": "0.5.8+commit.23d335f2.Emscripten.clang"
  },
  "schemaVersion": "3.0.10",
  "updatedAt": "2019-09-27T20:26:28.793Z",
  "devdoc": {
    "methods": {}
  },
  "userdoc": {
    "methods": {}
  }
}